{
  "contractName": "Marketplace",
  "abi": [
    {
      "inputs": [],
      "stateMutability": "nonpayable",
      "type": "constructor"
    },
    {
      "anonymous": false,
      "inputs": [
        {
          "indexed": true,
          "internalType": "address",
          "name": "owner",
          "type": "address"
        },
        {
          "indexed": true,
          "internalType": "address",
          "name": "approved",
          "type": "address"
        },
        {
          "indexed": true,
          "internalType": "uint256",
          "name": "tokenId",
          "type": "uint256"
        }
      ],
      "name": "Approval",
      "type": "event"
    },
    {
      "anonymous": false,
      "inputs": [
        {
          "indexed": true,
          "internalType": "address",
          "name": "owner",
          "type": "address"
        },
        {
          "indexed": true,
          "internalType": "address",
          "name": "operator",
          "type": "address"
        },
        {
          "indexed": false,
          "internalType": "bool",
          "name": "approved",
          "type": "bool"
        }
      ],
      "name": "ApprovalForAll",
      "type": "event"
    },
    {
      "anonymous": false,
      "inputs": [
        {
          "indexed": true,
          "internalType": "address",
          "name": "previousOwner",
          "type": "address"
        },
        {
          "indexed": true,
          "internalType": "address",
          "name": "newOwner",
          "type": "address"
        }
      ],
      "name": "OwnershipTransferred",
      "type": "event"
    },
    {
      "anonymous": false,
      "inputs": [
        {
          "indexed": false,
          "internalType": "uint256",
          "name": "id",
          "type": "uint256"
        },
        {
          "indexed": false,
          "internalType": "string",
          "name": "name",
          "type": "string"
        },
        {
          "indexed": false,
          "internalType": "string",
          "name": "description",
          "type": "string"
        },
        {
          "indexed": false,
          "internalType": "string",
          "name": "imageurl",
          "type": "string"
        },
        {
          "indexed": false,
          "internalType": "uint256",
          "name": "tokenid",
          "type": "uint256"
        },
        {
          "indexed": false,
          "internalType": "uint256",
          "name": "price",
          "type": "uint256"
        },
        {
          "indexed": false,
          "internalType": "address payable",
          "name": "owner",
          "type": "address"
        },
        {
          "indexed": false,
          "internalType": "bool",
          "name": "purchased",
          "type": "bool"
        }
      ],
      "name": "ProductCreated",
      "type": "event"
    },
    {
      "anonymous": false,
      "inputs": [
        {
          "indexed": false,
          "internalType": "uint256",
          "name": "id",
          "type": "uint256"
        },
        {
          "indexed": false,
          "internalType": "string",
          "name": "name",
          "type": "string"
        },
        {
          "indexed": false,
          "internalType": "string",
          "name": "description",
          "type": "string"
        },
        {
          "indexed": false,
          "internalType": "string",
          "name": "imageurl",
          "type": "string"
        },
        {
          "indexed": false,
          "internalType": "uint256",
          "name": "tokenid",
          "type": "uint256"
        },
        {
          "indexed": false,
          "internalType": "uint256",
          "name": "price",
          "type": "uint256"
        },
        {
          "indexed": false,
          "internalType": "address payable",
          "name": "owner",
          "type": "address"
        },
        {
          "indexed": false,
          "internalType": "bool",
          "name": "purchased",
          "type": "bool"
        }
      ],
      "name": "ProductPurchased",
      "type": "event"
    },
    {
      "anonymous": false,
      "inputs": [
        {
          "indexed": true,
          "internalType": "address",
          "name": "from",
          "type": "address"
        },
        {
          "indexed": true,
          "internalType": "address",
          "name": "to",
          "type": "address"
        },
        {
          "indexed": true,
          "internalType": "uint256",
          "name": "tokenId",
          "type": "uint256"
        }
      ],
      "name": "Transfer",
      "type": "event"
    },
    {
      "inputs": [
        {
          "internalType": "address",
          "name": "to",
          "type": "address"
        },
        {
          "internalType": "uint256",
          "name": "tokenId",
          "type": "uint256"
        }
      ],
      "name": "approve",
      "outputs": [],
      "stateMutability": "nonpayable",
      "type": "function"
    },
    {
      "inputs": [
        {
          "internalType": "address",
          "name": "owner",
          "type": "address"
        }
      ],
      "name": "balanceOf",
      "outputs": [
        {
          "internalType": "uint256",
          "name": "",
          "type": "uint256"
        }
      ],
      "stateMutability": "view",
      "type": "function",
      "constant": true
    },
    {
      "inputs": [
        {
          "internalType": "uint256",
          "name": "tokenId",
          "type": "uint256"
        }
      ],
      "name": "getApproved",
      "outputs": [
        {
          "internalType": "address",
          "name": "",
          "type": "address"
        }
      ],
      "stateMutability": "view",
      "type": "function",
      "constant": true
    },
    {
      "inputs": [
        {
          "internalType": "address",
          "name": "owner",
          "type": "address"
        },
        {
          "internalType": "address",
          "name": "operator",
          "type": "address"
        }
      ],
      "name": "isApprovedForAll",
      "outputs": [
        {
          "internalType": "bool",
          "name": "",
          "type": "bool"
        }
      ],
      "stateMutability": "view",
      "type": "function",
      "constant": true
    },
    {
      "inputs": [],
      "name": "name",
      "outputs": [
        {
          "internalType": "string",
          "name": "",
          "type": "string"
        }
      ],
      "stateMutability": "view",
      "type": "function",
      "constant": true
    },
    {
      "inputs": [],
      "name": "owner",
      "outputs": [
        {
          "internalType": "address",
          "name": "",
          "type": "address"
        }
      ],
      "stateMutability": "view",
      "type": "function",
      "constant": true
    },
    {
      "inputs": [
        {
          "internalType": "uint256",
          "name": "tokenId",
          "type": "uint256"
        }
      ],
      "name": "ownerOf",
      "outputs": [
        {
          "internalType": "address",
          "name": "",
          "type": "address"
        }
      ],
      "stateMutability": "view",
      "type": "function",
      "constant": true
    },
    {
      "inputs": [],
      "name": "productCount",
      "outputs": [
        {
          "internalType": "uint256",
          "name": "",
          "type": "uint256"
        }
      ],
      "stateMutability": "view",
      "type": "function",
      "constant": true
    },
    {
      "inputs": [
        {
          "internalType": "uint256",
          "name": "",
          "type": "uint256"
        }
      ],
      "name": "products",
      "outputs": [
        {
          "internalType": "uint256",
          "name": "id",
          "type": "uint256"
        },
        {
          "internalType": "string",
          "name": "name",
          "type": "string"
        },
        {
          "internalType": "string",
          "name": "description",
          "type": "string"
        },
        {
          "internalType": "string",
          "name": "imageurl",
          "type": "string"
        },
        {
          "internalType": "uint256",
          "name": "tokenid",
          "type": "uint256"
        },
        {
          "internalType": "uint256",
          "name": "price",
          "type": "uint256"
        },
        {
          "internalType": "address payable",
          "name": "owner",
          "type": "address"
        },
        {
          "internalType": "bool",
          "name": "purchased",
          "type": "bool"
        }
      ],
      "stateMutability": "view",
      "type": "function",
      "constant": true
    },
    {
      "inputs": [],
      "name": "renounceOwnership",
      "outputs": [],
      "stateMutability": "nonpayable",
      "type": "function"
    },
    {
      "inputs": [
        {
          "internalType": "address",
          "name": "from",
          "type": "address"
        },
        {
          "internalType": "address",
          "name": "to",
          "type": "address"
        },
        {
          "internalType": "uint256",
          "name": "tokenId",
          "type": "uint256"
        }
      ],
      "name": "safeTransferFrom",
      "outputs": [],
      "stateMutability": "nonpayable",
      "type": "function"
    },
    {
      "inputs": [
        {
          "internalType": "address",
          "name": "from",
          "type": "address"
        },
        {
          "internalType": "address",
          "name": "to",
          "type": "address"
        },
        {
          "internalType": "uint256",
          "name": "tokenId",
          "type": "uint256"
        },
        {
          "internalType": "bytes",
          "name": "_data",
          "type": "bytes"
        }
      ],
      "name": "safeTransferFrom",
      "outputs": [],
      "stateMutability": "nonpayable",
      "type": "function"
    },
    {
      "inputs": [
        {
          "internalType": "address",
          "name": "operator",
          "type": "address"
        },
        {
          "internalType": "bool",
          "name": "approved",
          "type": "bool"
        }
      ],
      "name": "setApprovalForAll",
      "outputs": [],
      "stateMutability": "nonpayable",
      "type": "function"
    },
    {
      "inputs": [
        {
          "internalType": "bytes4",
          "name": "interfaceId",
          "type": "bytes4"
        }
      ],
      "name": "supportsInterface",
      "outputs": [
        {
          "internalType": "bool",
          "name": "",
          "type": "bool"
        }
      ],
      "stateMutability": "view",
      "type": "function",
      "constant": true
    },
    {
      "inputs": [],
      "name": "symbol",
      "outputs": [
        {
          "internalType": "string",
          "name": "",
          "type": "string"
        }
      ],
      "stateMutability": "view",
      "type": "function",
      "constant": true
    },
    {
      "inputs": [],
      "name": "tokenId",
      "outputs": [
        {
          "internalType": "uint256",
          "name": "",
          "type": "uint256"
        }
      ],
      "stateMutability": "view",
      "type": "function",
      "constant": true
    },
    {
      "inputs": [
        {
          "internalType": "uint256",
          "name": "tokenId",
          "type": "uint256"
        }
      ],
      "name": "tokenURI",
      "outputs": [
        {
          "internalType": "string",
          "name": "",
          "type": "string"
        }
      ],
      "stateMutability": "view",
      "type": "function",
      "constant": true
    },
    {
      "inputs": [
        {
          "internalType": "address",
          "name": "from",
          "type": "address"
        },
        {
          "internalType": "address",
          "name": "to",
          "type": "address"
        },
        {
          "internalType": "uint256",
          "name": "tokenId",
          "type": "uint256"
        }
      ],
      "name": "transferFrom",
      "outputs": [],
      "stateMutability": "nonpayable",
      "type": "function"
    },
    {
      "inputs": [
        {
          "internalType": "address",
          "name": "newOwner",
          "type": "address"
        }
      ],
      "name": "transferOwnership",
      "outputs": [],
      "stateMutability": "nonpayable",
      "type": "function"
    },
    {
      "inputs": [
        {
          "internalType": "string",
          "name": "_name",
          "type": "string"
        },
        {
          "internalType": "string",
          "name": "_description",
          "type": "string"
        },
        {
          "internalType": "string",
          "name": "_imageurl",
          "type": "string"
        },
        {
          "internalType": "uint256",
          "name": "_price",
          "type": "uint256"
        }
      ],
      "name": "createProduct",
      "outputs": [],
      "stateMutability": "nonpayable",
      "type": "function"
    },
    {
      "inputs": [
        {
          "internalType": "uint256",
          "name": "_id",
          "type": "uint256"
        }
      ],
      "name": "purchaseProduct",
      "outputs": [],
      "stateMutability": "payable",
      "type": "function",
      "payable": true
    },
    {
      "inputs": [
        {
          "internalType": "address",
          "name": "recipient",
          "type": "address"
        },
        {
          "internalType": "string",
          "name": "tokenURI",
          "type": "string"
        }
      ],
      "name": "mintNFT",
      "outputs": [
        {
          "internalType": "uint256",
          "name": "",
          "type": "uint256"
        }
      ],
      "stateMutability": "nonpayable",
      "type": "function"
    }
  ],
  "bytecode": "0x608060405260006009553480156200001657600080fd5b506040518060400160405280600981526020017f4e46544d61726b657400000000000000000000000000000000000000000000008152506040518060400160405280600681526020017f456c69737361000000000000000000000000000000000000000000000000000081525081600090805190602001906200009b929190620001ab565b508060019080519060200190620000b4929190620001ab565b505050620000d7620000cb620000dd60201b60201c565b620000e560201b60201c565b620002c0565b600033905090565b6000600760009054906101000a900473ffffffffffffffffffffffffffffffffffffffff16905081600760006101000a81548173ffffffffffffffffffffffffffffffffffffffff021916908373ffffffffffffffffffffffffffffffffffffffff1602179055508173ffffffffffffffffffffffffffffffffffffffff168173ffffffffffffffffffffffffffffffffffffffff167f8be0079c531659141344cd1fd0a4f28419497f9722a3daafe3b4186f6b6457e060405160405180910390a35050565b828054620001b9906200025b565b90600052602060002090601f016020900481019282620001dd576000855562000229565b82601f10620001f857805160ff191683800117855562000229565b8280016001018555821562000229579182015b82811115620002285782518255916020019190600101906200020b565b5b5090506200023891906200023c565b5090565b5b80821115620002575760008160009055506001016200023d565b5090565b600060028204905060018216806200027457607f821691505b602082108114156200028b576200028a62000291565b5b50919050565b7f4e487b7100000000000000000000000000000000000000000000000000000000600052602260045260246000fd5b613b9580620002d06000396000f3fe6080604052600436106101355760003560e01c8063715018a6116100ab578063b88d4fde1161006f578063b88d4fde1461041e578063c87b56dd14610447578063e0f6ef8714610484578063e985e9c5146104af578063eacabe14146104ec578063f2fde38b1461052957610135565b8063715018a6146103445780637acc0b201461035b5780638da5cb5b1461039f57806395d89b41146103ca578063a22cb465146103f557610135565b80631b61040d116100fd5780631b61040d1461023357806323b872dd1461025c57806338e76a031461028557806342842e0e146102a15780636352211e146102ca57806370a082311461030757610135565b806301ffc9a71461013a57806306fdde0314610177578063081812fc146101a2578063095ea7b3146101df57806317d70f7c14610208575b600080fd5b34801561014657600080fd5b50610161600480360381019061015c91906129e5565b610552565b60405161016e9190612eeb565b60405180910390f35b34801561018357600080fd5b5061018c610634565b6040516101999190612f06565b60405180910390f35b3480156101ae57600080fd5b506101c960048036038101906101c49190612ae2565b6106c6565b6040516101d69190612e84565b60405180910390f35b3480156101eb57600080fd5b50610206600480360381019061020191906129a9565b61074b565b005b34801561021457600080fd5b5061021d610863565b60405161022a9190613168565b60405180910390f35b34801561023f57600080fd5b5061025a60048036038101906102559190612a37565b610869565b005b34801561026857600080fd5b50610283600480360381019061027e919061284f565b610a47565b005b61029f600480360381019061029a9190612ae2565b610aa7565b005b3480156102ad57600080fd5b506102c860048036038101906102c3919061284f565b610f93565b005b3480156102d657600080fd5b506102f160048036038101906102ec9190612ae2565b610fb3565b6040516102fe9190612e84565b60405180910390f35b34801561031357600080fd5b5061032e600480360381019061032991906127ea565b611065565b60405161033b9190613168565b60405180910390f35b34801561035057600080fd5b5061035961111d565b005b34801561036757600080fd5b50610382600480360381019061037d9190612ae2565b6111a5565b604051610396989796959493929190613183565b60405180910390f35b3480156103ab57600080fd5b506103b46113b2565b6040516103c19190612e84565b60405180910390f35b3480156103d657600080fd5b506103df6113dc565b6040516103ec9190612f06565b60405180910390f35b34801561040157600080fd5b5061041c60048036038101906104179190612919565b61146e565b005b34801561042a57600080fd5b506104456004803603810190610440919061289e565b611484565b005b34801561045357600080fd5b5061046e60048036038101906104699190612ae2565b6114e6565b60405161047b9190612f06565b60405180910390f35b34801561049057600080fd5b50610499611638565b6040516104a69190613168565b60405180910390f35b3480156104bb57600080fd5b506104d660048036038101906104d19190612813565b61163e565b6040516104e39190612eeb565b60405180910390f35b3480156104f857600080fd5b50610513600480360381019061050e9190612955565b6116d2565b6040516105209190613168565b60405180910390f35b34801561053557600080fd5b50610550600480360381019061054b91906127ea565b61170a565b005b60007f80ac58cd000000000000000000000000000000000000000000000000000000007bffffffffffffffffffffffffffffffffffffffffffffffffffffffff1916827bffffffffffffffffffffffffffffffffffffffffffffffffffffffff1916148061061d57507f5b5e139f000000000000000000000000000000000000000000000000000000007bffffffffffffffffffffffffffffffffffffffffffffffffffffffff1916827bffffffffffffffffffffffffffffffffffffffffffffffffffffffff1916145b8061062d575061062c82611802565b5b9050919050565b60606000805461064390613463565b80601f016020809104026020016040519081016040528092919081815260200182805461066f90613463565b80156106bc5780601f10610691576101008083540402835291602001916106bc565b820191906000526020600020905b81548152906001019060200180831161069f57829003601f168201915b5050505050905090565b60006106d18261186c565b610710576040517f08c379a0000000000000000000000000000000000000000000000000000000008152600401610707906130c8565b60405180910390fd5b6004600083815260200190815260200160002060009054906101000a900473ffffffffffffffffffffffffffffffffffffffff169050919050565b600061075682610fb3565b90508073ffffffffffffffffffffffffffffffffffffffff168373ffffffffffffffffffffffffffffffffffffffff1614156107c7576040517f08c379a00000000000000000000000000000000000000000000000000000000081526004016107be90613128565b60405180910390fd5b8073ffffffffffffffffffffffffffffffffffffffff166107e66118d8565b73ffffffffffffffffffffffffffffffffffffffff16148061081557506108148161080f6118d8565b61163e565b5b610854576040517f08c379a000000000000000000000000000000000000000000000000000000000815260040161084b90613008565b60405180910390fd5b61085e83836118e0565b505050565b600a5481565b600084511161087757600080fd5b6000811161088457600080fd5b60096000815480929190610897906134c6565b91905055506108a633836116d2565b600a819055506040518061010001604052806009548152602001858152602001848152602001838152602001600a5481526020018281526020013373ffffffffffffffffffffffffffffffffffffffff16815260200160001515815250600b6000600954815260200190815260200160002060008201518160000155602082015181600101908051906020019061093e92919061260e565b50604082015181600201908051906020019061095b92919061260e565b50606082015181600301908051906020019061097892919061260e565b506080820151816004015560a0820151816005015560c08201518160060160006101000a81548173ffffffffffffffffffffffffffffffffffffffff021916908373ffffffffffffffffffffffffffffffffffffffff16021790555060e08201518160060160146101000a81548160ff0219169083151502179055509050507fd0623ec2515398fa5e947fefc2032a26e9fbde86ddee05fa731d78671c3ef3b4600954858585600a5486336000604051610a39989796959493929190613183565b60405180910390a150505050565b610a58610a526118d8565b82611999565b610a97576040517f08c379a0000000000000000000000000000000000000000000000000000000008152600401610a8e90613148565b60405180910390fd5b610aa2838383611a77565b505050565b6000600b60008381526020019081526020016000206040518061010001604052908160008201548152602001600182018054610ae290613463565b80601f0160208091040260200160405190810160405280929190818152602001828054610b0e90613463565b8015610b5b5780601f10610b3057610100808354040283529160200191610b5b565b820191906000526020600020905b815481529060010190602001808311610b3e57829003601f168201915b50505050508152602001600282018054610b7490613463565b80601f0160208091040260200160405190810160405280929190818152602001828054610ba090613463565b8015610bed5780601f10610bc257610100808354040283529160200191610bed565b820191906000526020600020905b815481529060010190602001808311610bd057829003601f168201915b50505050508152602001600382018054610c0690613463565b80601f0160208091040260200160405190810160405280929190818152602001828054610c3290613463565b8015610c7f5780601f10610c5457610100808354040283529160200191610c7f565b820191906000526020600020905b815481529060010190602001808311610c6257829003601f168201915b5050505050815260200160048201548152602001600582015481526020016006820160009054906101000a900473ffffffffffffffffffffffffffffffffffffffff1673ffffffffffffffffffffffffffffffffffffffff1673ffffffffffffffffffffffffffffffffffffffff1681526020016006820160149054906101000a900460ff161515151581525050905060008160c00151905060008260000151118015610d325750600954826000015111155b610d3b57600080fd5b8160a00151341015610d4c57600080fd5b8160e0015115610d5b57600080fd5b3373ffffffffffffffffffffffffffffffffffffffff168173ffffffffffffffffffffffffffffffffffffffff161415610d9457600080fd5b338260c0019073ffffffffffffffffffffffffffffffffffffffff16908173ffffffffffffffffffffffffffffffffffffffff168152505060018260e001901515908115158152505081600b6000858152602001908152602001600020600082015181600001556020820151816001019080519060200190610e1792919061260e565b506040820151816002019080519060200190610e3492919061260e565b506060820151816003019080519060200190610e5192919061260e565b506080820151816004015560a0820151816005015560c08201518160060160006101000a81548173ffffffffffffffffffffffffffffffffffffffff021916908373ffffffffffffffffffffffffffffffffffffffff16021790555060e08201518160060160146101000a81548160ff021916908315150217905550905050610eeb610ee08360800151610fb3565b338460800151611a77565b8073ffffffffffffffffffffffffffffffffffffffff166108fc349081150290604051600060405180830381858888f19350505050158015610f31573d6000803e3d6000fd5b507ff2dbdaca7fb275306501beff41217782fe07a5d0d43d518bdf2e9d21923538fb60095483602001518460400151856060015186608001518760a00151336001604051610f86989796959493929190613183565b60405180910390a1505050565b610fae83838360405180602001604052806000815250611484565b505050565b6000806002600084815260200190815260200160002060009054906101000a900473ffffffffffffffffffffffffffffffffffffffff169050600073ffffffffffffffffffffffffffffffffffffffff168173ffffffffffffffffffffffffffffffffffffffff16141561105c576040517f08c379a000000000000000000000000000000000000000000000000000000000815260040161105390613048565b60405180910390fd5b80915050919050565b60008073ffffffffffffffffffffffffffffffffffffffff168273ffffffffffffffffffffffffffffffffffffffff1614156110d6576040517f08c379a00000000000000000000000000000000000000000000000000000000081526004016110cd90613028565b60405180910390fd5b600360008373ffffffffffffffffffffffffffffffffffffffff1673ffffffffffffffffffffffffffffffffffffffff168152602001908152602001600020549050919050565b6111256118d8565b73ffffffffffffffffffffffffffffffffffffffff166111436113b2565b73ffffffffffffffffffffffffffffffffffffffff1614611199576040517f08c379a0000000000000000000000000000000000000000000000000000000008152600401611190906130e8565b60405180910390fd5b6111a36000611cde565b565b600b6020528060005260406000206000915090508060000154908060010180546111ce90613463565b80601f01602080910402602001604051908101604052809291908181526020018280546111fa90613463565b80156112475780601f1061121c57610100808354040283529160200191611247565b820191906000526020600020905b81548152906001019060200180831161122a57829003601f168201915b50505050509080600201805461125c90613463565b80601f016020809104026020016040519081016040528092919081815260200182805461128890613463565b80156112d55780601f106112aa576101008083540402835291602001916112d5565b820191906000526020600020905b8154815290600101906020018083116112b857829003601f168201915b5050505050908060030180546112ea90613463565b80601f016020809104026020016040519081016040528092919081815260200182805461131690613463565b80156113635780601f1061133857610100808354040283529160200191611363565b820191906000526020600020905b81548152906001019060200180831161134657829003601f168201915b5050505050908060040154908060050154908060060160009054906101000a900473ffffffffffffffffffffffffffffffffffffffff16908060060160149054906101000a900460ff16905088565b6000600760009054906101000a900473ffffffffffffffffffffffffffffffffffffffff16905090565b6060600180546113eb90613463565b80601f016020809104026020016040519081016040528092919081815260200182805461141790613463565b80156114645780601f1061143957610100808354040283529160200191611464565b820191906000526020600020905b81548152906001019060200180831161144757829003601f168201915b5050505050905090565b6114806114796118d8565b8383611da4565b5050565b61149561148f6118d8565b83611999565b6114d4576040517f08c379a00000000000000000000000000000000000000000000000000000000081526004016114cb90613148565b60405180910390fd5b6114e084848484611f11565b50505050565b60606114f18261186c565b611530576040517f08c379a0000000000000000000000000000000000000000000000000000000008152600401611527906130a8565b60405180910390fd5b600060066000848152602001908152602001600020805461155090613463565b80601f016020809104026020016040519081016040528092919081815260200182805461157c90613463565b80156115c95780601f1061159e576101008083540402835291602001916115c9565b820191906000526020600020905b8154815290600101906020018083116115ac57829003601f168201915b5050505050905060006115da611f6d565b90506000815114156115f0578192505050611633565b60008251111561162557808260405160200161160d929190612e60565b60405160208183030381529060405292505050611633565b61162e84611f84565b925050505b919050565b60095481565b6000600560008473ffffffffffffffffffffffffffffffffffffffff1673ffffffffffffffffffffffffffffffffffffffff16815260200190815260200160002060008373ffffffffffffffffffffffffffffffffffffffff1673ffffffffffffffffffffffffffffffffffffffff16815260200190815260200160002060009054906101000a900460ff16905092915050565b60006116de600861202b565b60006116ea6008612041565b90506116f6848261204f565b6117008184612229565b8091505092915050565b6117126118d8565b73ffffffffffffffffffffffffffffffffffffffff166117306113b2565b73ffffffffffffffffffffffffffffffffffffffff1614611786576040517f08c379a000000000000000000000000000000000000000000000000000000000815260040161177d906130e8565b60405180910390fd5b600073ffffffffffffffffffffffffffffffffffffffff168173ffffffffffffffffffffffffffffffffffffffff1614156117f6576040517f08c379a00000000000000000000000000000000000000000000000000000000081526004016117ed90612f48565b60405180910390fd5b6117ff81611cde565b50565b60007f01ffc9a7000000000000000000000000000000000000000000000000000000007bffffffffffffffffffffffffffffffffffffffffffffffffffffffff1916827bffffffffffffffffffffffffffffffffffffffffffffffffffffffff1916149050919050565b60008073ffffffffffffffffffffffffffffffffffffffff166002600084815260200190815260200160002060009054906101000a900473ffffffffffffffffffffffffffffffffffffffff1673ffffffffffffffffffffffffffffffffffffffff1614159050919050565b600033905090565b816004600083815260200190815260200160002060006101000a81548173ffffffffffffffffffffffffffffffffffffffff021916908373ffffffffffffffffffffffffffffffffffffffff160217905550808273ffffffffffffffffffffffffffffffffffffffff1661195383610fb3565b73ffffffffffffffffffffffffffffffffffffffff167f8c5be1e5ebec7d5bd14f71427d1e84f3dd0314c0f7b2291e5b200ac8c7c3b92560405160405180910390a45050565b60006119a48261186c565b6119e3576040517f08c379a00000000000000000000000000000000000000000000000000000000081526004016119da90612fe8565b60405180910390fd5b60006119ee83610fb3565b90508073ffffffffffffffffffffffffffffffffffffffff168473ffffffffffffffffffffffffffffffffffffffff161480611a305750611a2f818561163e565b5b80611a6e57508373ffffffffffffffffffffffffffffffffffffffff16611a56846106c6565b73ffffffffffffffffffffffffffffffffffffffff16145b91505092915050565b8273ffffffffffffffffffffffffffffffffffffffff16611a9782610fb3565b73ffffffffffffffffffffffffffffffffffffffff1614611aed576040517f08c379a0000000000000000000000000000000000000000000000000000000008152600401611ae490612f68565b60405180910390fd5b600073ffffffffffffffffffffffffffffffffffffffff168273ffffffffffffffffffffffffffffffffffffffff161415611b5d576040517f08c379a0000000000000000000000000000000000000000000000000000000008152600401611b5490612fa8565b60405180910390fd5b611b6883838361229d565b611b736000826118e0565b6001600360008573ffffffffffffffffffffffffffffffffffffffff1673ffffffffffffffffffffffffffffffffffffffff1681526020019081526020016000206000828254611bc39190613367565b925050819055506001600360008473ffffffffffffffffffffffffffffffffffffffff1673ffffffffffffffffffffffffffffffffffffffff1681526020019081526020016000206000828254611c1a91906132e0565b92505081905550816002600083815260200190815260200160002060006101000a81548173ffffffffffffffffffffffffffffffffffffffff021916908373ffffffffffffffffffffffffffffffffffffffff160217905550808273ffffffffffffffffffffffffffffffffffffffff168473ffffffffffffffffffffffffffffffffffffffff167fddf252ad1be2c89b69c2b068fc378daa952ba7f163c4a11628f55a4df523b3ef60405160405180910390a4611cd98383836122a2565b505050565b6000600760009054906101000a900473ffffffffffffffffffffffffffffffffffffffff16905081600760006101000a81548173ffffffffffffffffffffffffffffffffffffffff021916908373ffffffffffffffffffffffffffffffffffffffff1602179055508173ffffffffffffffffffffffffffffffffffffffff168173ffffffffffffffffffffffffffffffffffffffff167f8be0079c531659141344cd1fd0a4f28419497f9722a3daafe3b4186f6b6457e060405160405180910390a35050565b8173ffffffffffffffffffffffffffffffffffffffff168373ffffffffffffffffffffffffffffffffffffffff161415611e13576040517f08c379a0000000000000000000000000000000000000000000000000000000008152600401611e0a90612fc8565b60405180910390fd5b80600560008573ffffffffffffffffffffffffffffffffffffffff1673ffffffffffffffffffffffffffffffffffffffff16815260200190815260200160002060008473ffffffffffffffffffffffffffffffffffffffff1673ffffffffffffffffffffffffffffffffffffffff16815260200190815260200160002060006101000a81548160ff0219169083151502179055508173ffffffffffffffffffffffffffffffffffffffff168373ffffffffffffffffffffffffffffffffffffffff167f17307eab39ab6107e8899845ad3d59bd9653f200f220920489ca2b5937696c3183604051611f049190612eeb565b60405180910390a3505050565b611f1c848484611a77565b611f28848484846122a7565b611f67576040517f08c379a0000000000000000000000000000000000000000000000000000000008152600401611f5e90612f28565b60405180910390fd5b50505050565b606060405180602001604052806000815250905090565b6060611f8f8261186c565b611fce576040517f08c379a0000000000000000000000000000000000000000000000000000000008152600401611fc590613108565b60405180910390fd5b6000611fd8611f6d565b90506000815111611ff85760405180602001604052806000815250612023565b806120028461243e565b604051602001612013929190612e60565b6040516020818303038152906040525b915050919050565b6001816000016000828254019250508190555050565b600081600001549050919050565b600073ffffffffffffffffffffffffffffffffffffffff168273ffffffffffffffffffffffffffffffffffffffff1614156120bf576040517f08c379a00000000000000000000000000000000000000000000000000000000081526004016120b690613088565b60405180910390fd5b6120c88161186c565b15612108576040517f08c379a00000000000000000000000000000000000000000000000000000000081526004016120ff90612f88565b60405180910390fd5b6121146000838361229d565b6001600360008473ffffffffffffffffffffffffffffffffffffffff1673ffffffffffffffffffffffffffffffffffffffff168152602001908152602001600020600082825461216491906132e0565b92505081905550816002600083815260200190815260200160002060006101000a81548173ffffffffffffffffffffffffffffffffffffffff021916908373ffffffffffffffffffffffffffffffffffffffff160217905550808273ffffffffffffffffffffffffffffffffffffffff16600073ffffffffffffffffffffffffffffffffffffffff167fddf252ad1be2c89b69c2b068fc378daa952ba7f163c4a11628f55a4df523b3ef60405160405180910390a4612225600083836122a2565b5050565b6122328261186c565b612271576040517f08c379a000000000000000000000000000000000000000000000000000000000815260040161226890613068565b60405180910390fd5b8060066000848152602001908152602001600020908051906020019061229892919061260e565b505050565b505050565b505050565b60006122c88473ffffffffffffffffffffffffffffffffffffffff166125eb565b15612431578373ffffffffffffffffffffffffffffffffffffffff1663150b7a026122f16118d8565b8786866040518563ffffffff1660e01b81526004016123139493929190612e9f565b602060405180830381600087803b15801561232d57600080fd5b505af192505050801561235e57506040513d601f19601f8201168201806040525081019061235b9190612a0e565b60015b6123e1573d806000811461238e576040519150601f19603f3d011682016040523d82523d6000602084013e612393565b606091505b506000815114156123d9576040517f08c379a00000000000000000000000000000000000000000000000000000000081526004016123d090612f28565b60405180910390fd5b805181602001fd5b63150b7a0260e01b7bffffffffffffffffffffffffffffffffffffffffffffffffffffffff1916817bffffffffffffffffffffffffffffffffffffffffffffffffffffffff191614915050612436565b600190505b949350505050565b60606000821415612486576040518060400160405280600181526020017f300000000000000000000000000000000000000000000000000000000000000081525090506125e6565b600082905060005b600082146124b85780806124a1906134c6565b915050600a826124b19190613336565b915061248e565b60008167ffffffffffffffff8111156124fa577f4e487b7100000000000000000000000000000000000000000000000000000000600052604160045260246000fd5b6040519080825280601f01601f19166020018201604052801561252c5781602001600182028036833780820191505090505b5090505b600085146125df576001826125459190613367565b9150600a85612554919061350f565b603061256091906132e0565b60f81b81838151811061259c577f4e487b7100000000000000000000000000000000000000000000000000000000600052603260045260246000fd5b60200101907effffffffffffffffffffffffffffffffffffffffffffffffffffffffffffff1916908160001a905350600a856125d89190613336565b9450612530565b8093505050505b919050565b6000808273ffffffffffffffffffffffffffffffffffffffff163b119050919050565b82805461261a90613463565b90600052602060002090601f01602090048101928261263c5760008555612683565b82601f1061265557805160ff1916838001178555612683565b82800160010185558215612683579182015b82811115612682578251825591602001919060010190612667565b5b5090506126909190612694565b5090565b5b808211156126ad576000816000905550600101612695565b5090565b60006126c46126bf8461323b565b613216565b9050828152602081018484840111156126dc57600080fd5b6126e7848285613421565b509392505050565b60006127026126fd8461326c565b613216565b90508281526020810184848401111561271a57600080fd5b612725848285613421565b509392505050565b60008135905061273c81613b03565b92915050565b60008135905061275181613b1a565b92915050565b60008135905061276681613b31565b92915050565b60008151905061277b81613b31565b92915050565b600082601f83011261279257600080fd5b81356127a28482602086016126b1565b91505092915050565b600082601f8301126127bc57600080fd5b81356127cc8482602086016126ef565b91505092915050565b6000813590506127e481613b48565b92915050565b6000602082840312156127fc57600080fd5b600061280a8482850161272d565b91505092915050565b6000806040838503121561282657600080fd5b60006128348582860161272d565b92505060206128458582860161272d565b9150509250929050565b60008060006060848603121561286457600080fd5b60006128728682870161272d565b93505060206128838682870161272d565b9250506040612894868287016127d5565b9150509250925092565b600080600080608085870312156128b457600080fd5b60006128c28782880161272d565b94505060206128d38782880161272d565b93505060406128e4878288016127d5565b925050606085013567ffffffffffffffff81111561290157600080fd5b61290d87828801612781565b91505092959194509250565b6000806040838503121561292c57600080fd5b600061293a8582860161272d565b925050602061294b85828601612742565b9150509250929050565b6000806040838503121561296857600080fd5b60006129768582860161272d565b925050602083013567ffffffffffffffff81111561299357600080fd5b61299f858286016127ab565b9150509250929050565b600080604083850312156129bc57600080fd5b60006129ca8582860161272d565b92505060206129db858286016127d5565b9150509250929050565b6000602082840312156129f757600080fd5b6000612a0584828501612757565b91505092915050565b600060208284031215612a2057600080fd5b6000612a2e8482850161276c565b91505092915050565b60008060008060808587031215612a4d57600080fd5b600085013567ffffffffffffffff811115612a6757600080fd5b612a73878288016127ab565b945050602085013567ffffffffffffffff811115612a9057600080fd5b612a9c878288016127ab565b935050604085013567ffffffffffffffff811115612ab957600080fd5b612ac5878288016127ab565b9250506060612ad6878288016127d5565b91505092959194509250565b600060208284031215612af457600080fd5b6000612b02848285016127d5565b91505092915050565b612b14816133ad565b82525050565b612b238161339b565b82525050565b612b32816133bf565b82525050565b6000612b438261329d565b612b4d81856132b3565b9350612b5d818560208601613430565b612b66816135fc565b840191505092915050565b6000612b7c826132a8565b612b8681856132c4565b9350612b96818560208601613430565b612b9f816135fc565b840191505092915050565b6000612bb5826132a8565b612bbf81856132d5565b9350612bcf818560208601613430565b80840191505092915050565b6000612be86032836132c4565b9150612bf38261360d565b604082019050919050565b6000612c0b6026836132c4565b9150612c168261365c565b604082019050919050565b6000612c2e6025836132c4565b9150612c39826136ab565b604082019050919050565b6000612c51601c836132c4565b9150612c5c826136fa565b602082019050919050565b6000612c746024836132c4565b9150612c7f82613723565b604082019050919050565b6000612c976019836132c4565b9150612ca282613772565b602082019050919050565b6000612cba602c836132c4565b9150612cc58261379b565b604082019050919050565b6000612cdd6038836132c4565b9150612ce8826137ea565b604082019050919050565b6000612d00602a836132c4565b9150612d0b82613839565b604082019050919050565b6000612d236029836132c4565b9150612d2e82613888565b604082019050919050565b6000612d46602e836132c4565b9150612d51826138d7565b604082019050919050565b6000612d696020836132c4565b9150612d7482613926565b602082019050919050565b6000612d8c6031836132c4565b9150612d978261394f565b604082019050919050565b6000612daf602c836132c4565b9150612dba8261399e565b604082019050919050565b6000612dd26020836132c4565b9150612ddd826139ed565b602082019050919050565b6000612df5602f836132c4565b9150612e0082613a16565b604082019050919050565b6000612e186021836132c4565b9150612e2382613a65565b604082019050919050565b6000612e3b6031836132c4565b9150612e4682613ab4565b604082019050919050565b612e5a81613417565b82525050565b6000612e6c8285612baa565b9150612e788284612baa565b91508190509392505050565b6000602082019050612e996000830184612b1a565b92915050565b6000608082019050612eb46000830187612b1a565b612ec16020830186612b1a565b612ece6040830185612e51565b8181036060830152612ee08184612b38565b905095945050505050565b6000602082019050612f006000830184612b29565b92915050565b60006020820190508181036000830152612f208184612b71565b905092915050565b60006020820190508181036000830152612f4181612bdb565b9050919050565b60006020820190508181036000830152612f6181612bfe565b9050919050565b60006020820190508181036000830152612f8181612c21565b9050919050565b60006020820190508181036000830152612fa181612c44565b9050919050565b60006020820190508181036000830152612fc181612c67565b9050919050565b60006020820190508181036000830152612fe181612c8a565b9050919050565b6000602082019050818103600083015261300181612cad565b9050919050565b6000602082019050818103600083015261302181612cd0565b9050919050565b6000602082019050818103600083015261304181612cf3565b9050919050565b6000602082019050818103600083015261306181612d16565b9050919050565b6000602082019050818103600083015261308181612d39565b9050919050565b600060208201905081810360008301526130a181612d5c565b9050919050565b600060208201905081810360008301526130c181612d7f565b9050919050565b600060208201905081810360008301526130e181612da2565b9050919050565b6000602082019050818103600083015261310181612dc5565b9050919050565b6000602082019050818103600083015261312181612de8565b9050919050565b6000602082019050818103600083015261314181612e0b565b9050919050565b6000602082019050818103600083015261316181612e2e565b9050919050565b600060208201905061317d6000830184612e51565b92915050565b600061010082019050613199600083018b612e51565b81810360208301526131ab818a612b71565b905081810360408301526131bf8189612b71565b905081810360608301526131d38188612b71565b90506131e26080830187612e51565b6131ef60a0830186612e51565b6131fc60c0830185612b0b565b61320960e0830184612b29565b9998505050505050505050565b6000613220613231565b905061322c8282613495565b919050565b6000604051905090565b600067ffffffffffffffff821115613256576132556135cd565b5b61325f826135fc565b9050602081019050919050565b600067ffffffffffffffff821115613287576132866135cd565b5b613290826135fc565b9050602081019050919050565b600081519050919050565b600081519050919050565b600082825260208201905092915050565b600082825260208201905092915050565b600081905092915050565b60006132eb82613417565b91506132f683613417565b9250827fffffffffffffffffffffffffffffffffffffffffffffffffffffffffffffffff0382111561332b5761332a613540565b5b828201905092915050565b600061334182613417565b915061334c83613417565b92508261335c5761335b61356f565b5b828204905092915050565b600061337282613417565b915061337d83613417565b9250828210156133905761338f613540565b5b828203905092915050565b60006133a6826133f7565b9050919050565b60006133b8826133f7565b9050919050565b60008115159050919050565b60007fffffffff0000000000000000000000000000000000000000000000000000000082169050919050565b600073ffffffffffffffffffffffffffffffffffffffff82169050919050565b6000819050919050565b82818337600083830152505050565b60005b8381101561344e578082015181840152602081019050613433565b8381111561345d576000848401525b50505050565b6000600282049050600182168061347b57607f821691505b6020821081141561348f5761348e61359e565b5b50919050565b61349e826135fc565b810181811067ffffffffffffffff821117156134bd576134bc6135cd565b5b80604052505050565b60006134d182613417565b91507fffffffffffffffffffffffffffffffffffffffffffffffffffffffffffffffff82141561350457613503613540565b5b600182019050919050565b600061351a82613417565b915061352583613417565b9250826135355761353461356f565b5b828206905092915050565b7f4e487b7100000000000000000000000000000000000000000000000000000000600052601160045260246000fd5b7f4e487b7100000000000000000000000000000000000000000000000000000000600052601260045260246000fd5b7f4e487b7100000000000000000000000000000000000000000000000000000000600052602260045260246000fd5b7f4e487b7100000000000000000000000000000000000000000000000000000000600052604160045260246000fd5b6000601f19601f8301169050919050565b7f4552433732313a207472616e7366657220746f206e6f6e20455243373231526560008201527f63656976657220696d706c656d656e7465720000000000000000000000000000602082015250565b7f4f776e61626c653a206e6577206f776e657220697320746865207a65726f206160008201527f6464726573730000000000000000000000000000000000000000000000000000602082015250565b7f4552433732313a207472616e736665722066726f6d20696e636f72726563742060008201527f6f776e6572000000000000000000000000000000000000000000000000000000602082015250565b7f4552433732313a20746f6b656e20616c7265616479206d696e74656400000000600082015250565b7f4552433732313a207472616e7366657220746f20746865207a65726f2061646460008201527f7265737300000000000000000000000000000000000000000000000000000000602082015250565b7f4552433732313a20617070726f766520746f2063616c6c657200000000000000600082015250565b7f4552433732313a206f70657261746f7220717565727920666f72206e6f6e657860008201527f697374656e7420746f6b656e0000000000000000000000000000000000000000602082015250565b7f4552433732313a20617070726f76652063616c6c6572206973206e6f74206f7760008201527f6e6572206e6f7220617070726f76656420666f7220616c6c0000000000000000602082015250565b7f4552433732313a2062616c616e636520717565727920666f7220746865207a6560008201527f726f206164647265737300000000000000000000000000000000000000000000602082015250565b7f4552433732313a206f776e657220717565727920666f72206e6f6e657869737460008201527f656e7420746f6b656e0000000000000000000000000000000000000000000000602082015250565b7f45524337323155524953746f726167653a2055524920736574206f66206e6f6e60008201527f6578697374656e7420746f6b656e000000000000000000000000000000000000602082015250565b7f4552433732313a206d696e7420746f20746865207a65726f2061646472657373600082015250565b7f45524337323155524953746f726167653a2055524920717565727920666f722060008201527f6e6f6e6578697374656e7420746f6b656e000000000000000000000000000000602082015250565b7f4552433732313a20617070726f76656420717565727920666f72206e6f6e657860008201527f697374656e7420746f6b656e0000000000000000000000000000000000000000602082015250565b7f4f776e61626c653a2063616c6c6572206973206e6f7420746865206f776e6572600082015250565b7f4552433732314d657461646174613a2055524920717565727920666f72206e6f60008201527f6e6578697374656e7420746f6b656e0000000000000000000000000000000000602082015250565b7f4552433732313a20617070726f76616c20746f2063757272656e74206f776e6560008201527f7200000000000000000000000000000000000000000000000000000000000000602082015250565b7f4552433732313a207472616e736665722063616c6c6572206973206e6f74206f60008201527f776e6572206e6f7220617070726f766564000000000000000000000000000000602082015250565b613b0c8161339b565b8114613b1757600080fd5b50565b613b23816133bf565b8114613b2e57600080fd5b50565b613b3a816133cb565b8114613b4557600080fd5b50565b613b5181613417565b8114613b5c57600080fd5b5056fea2646970667358221220646079cc93f43a6393c30e5bc94e0acdbd90e99c807cc1914aa4944a5896e74564736f6c63430008010033",
  "immutableReferences": {},
  "source": "//SPDX-License-Identifier: MIT\r\npragma solidity ^0.8.1;\r\n\r\nimport \"../client/node_modules/@openzeppelin/contracts/token/ERC721/ERC721.sol\";\r\nimport \"../client/node_modules/@openzeppelin/contracts/utils/Counters.sol\";\r\nimport \"../client/node_modules/@openzeppelin/contracts/access/Ownable.sol\";\r\nimport \"../client/node_modules/@openzeppelin/contracts/token/ERC721/extensions/ERC721URIStorage.sol\";\r\n\r\ncontract Marketplace is ERC721URIStorage, Ownable{\r\n    using Counters for Counters.Counter;\r\n    Counters.Counter private _tokenIds;\r\n\r\n    uint public productCount = 0;\r\n    uint public tokenId;\r\n    mapping(uint => Product) public products;\r\n\r\n    struct Product {\r\n        uint id;\r\n        string name;\r\n        string description;\r\n        string imageurl;\r\n        uint tokenid;\r\n        uint price;\r\n        address payable owner;\r\n        bool purchased;\r\n    }\r\n\r\n    event ProductCreated(\r\n        uint id,\r\n        string name,\r\n        string description,\r\n        string imageurl,\r\n        uint tokenid,\r\n        uint price,\r\n        address payable owner,\r\n        bool purchased\r\n    );\r\n\r\n    event ProductPurchased(\r\n        uint id,\r\n        string name,\r\n        string description,\r\n        string imageurl,\r\n        uint tokenid,\r\n        uint price,\r\n        address payable owner,\r\n        bool purchased\r\n    );\r\n\r\n    constructor() ERC721(\"NFTMarket\", \"Elissa\"){}\r\n\r\n    function createProduct(string memory _name, string memory _description, string memory _imageurl, uint _price) public {\r\n        require(bytes(_name).length > 0);\r\n        require(_price > 0);\r\n        productCount ++;\r\n        tokenId = mintNFT(msg.sender, _imageurl);\r\n        products[productCount] = Product(productCount, _name, _description, _imageurl, tokenId, _price, payable(msg.sender), false);\r\n        emit ProductCreated(productCount, _name, _description, _imageurl, tokenId, _price, payable(msg.sender), false);\r\n    }\r\n\r\n    function purchaseProduct(uint _id) public payable {\r\n        Product memory _product = products[_id];\r\n        address payable _seller = _product.owner;\r\n        require(_product.id > 0 && _product.id <= productCount);\r\n        require(msg.value >= _product.price);\r\n        require(!_product.purchased);\r\n        require(_seller != msg.sender);\r\n        _product.owner = payable(msg.sender);\r\n        _product.purchased = true;\r\n        products[_id] = _product;\r\n        _transfer(ownerOf(_product.tokenid), msg.sender, _product.tokenid);\r\n        payable (address(_seller)).transfer(msg.value);\r\n        emit ProductPurchased(productCount, _product.name, _product.description, _product.imageurl, _product.tokenid, _product.price, payable(msg.sender), true);\r\n    }\r\n\r\n    \r\n    function mintNFT(address recipient, string memory tokenURI) public returns (uint256){\r\n        _tokenIds.increment();\r\n\r\n        uint256 newItemId = _tokenIds.current();\r\n        _mint(recipient, newItemId);\r\n        _setTokenURI(newItemId, tokenURI);\r\n\r\n        return newItemId;\r\n    }\r\n}",
  "sourcePath": "C:\\Users\\hyoub\\Documents\\Semester 6-1\\smart-contract\\contracts\\Marketplace.sol",
  "compiler": {
    "name": "solc",
    "version": "0.8.1+commit.df193b15.Emscripten.clang"
  },
  "schemaVersion": "3.4.3",
  "updatedAt": "2022-06-06T13:41:29.070Z",
  "networkType": "ethereum",
  "devdoc": {
    "kind": "dev",
    "methods": {
      "approve(address,uint256)": {
        "details": "See {IERC721-approve}."
      },
      "balanceOf(address)": {
        "details": "See {IERC721-balanceOf}."
      },
      "getApproved(uint256)": {
        "details": "See {IERC721-getApproved}."
      },
      "isApprovedForAll(address,address)": {
        "details": "See {IERC721-isApprovedForAll}."
      },
      "name()": {
        "details": "See {IERC721Metadata-name}."
      },
      "owner()": {
        "details": "Returns the address of the current owner."
      },
      "ownerOf(uint256)": {
        "details": "See {IERC721-ownerOf}."
      },
      "renounceOwnership()": {
        "details": "Leaves the contract without owner. It will not be possible to call `onlyOwner` functions anymore. Can only be called by the current owner. NOTE: Renouncing ownership will leave the contract without an owner, thereby removing any functionality that is only available to the owner."
      },
      "safeTransferFrom(address,address,uint256)": {
        "details": "See {IERC721-safeTransferFrom}."
      },
      "safeTransferFrom(address,address,uint256,bytes)": {
        "details": "See {IERC721-safeTransferFrom}."
      },
      "setApprovalForAll(address,bool)": {
        "details": "See {IERC721-setApprovalForAll}."
      },
      "supportsInterface(bytes4)": {
        "details": "See {IERC165-supportsInterface}."
      },
      "symbol()": {
        "details": "See {IERC721Metadata-symbol}."
      },
      "tokenURI(uint256)": {
        "details": "See {IERC721Metadata-tokenURI}."
      },
      "transferFrom(address,address,uint256)": {
        "details": "See {IERC721-transferFrom}."
      },
      "transferOwnership(address)": {
        "details": "Transfers ownership of the contract to a new account (`newOwner`). Can only be called by the current owner."
      }
    },
    "version": 1
  },
  "userdoc": {
    "kind": "user",
    "methods": {},
    "version": 1
  }
}